:100000000200437A5A79FA78FAD8FED9FADAF62257
:1000100012000312000322E5E854087004120010D5
:100020002212000322E5E85407B50702C322D322B7
:100030007591FF7592FF7593FF7594FF758EFF752F
:100040008FFF2275817F75E80075950012003020C2
:10005000FBFD30FBFDE5E85407FFB4000302008A16
:10006000B401030200A2B402030200AEB40303020F
:1000700000F1B4040302013DB40503020167B406B4
:10008000030201B3B407C8020206120030758FF8EC
:10009000758EB07594F97593F87592F87591A40200
:1000A000004F1200307592F87591F902004F7B00F5
:1000B0001200254039EB12025AF58FEB0412025858
:1000C000F58EEB2402120258F594EB240312025829
:1000D000F593EB2404120258F592EB240512025812
:1000E000F5911200170BEBB408C67B0080C202002A
:1000F0004F7B0012002540427408C39B120258F542
:100100008F7409C39B120258F58E740AC39B1202A6
:1001100058F594740BC39B120258F593740CC39B4F
:10012000120258F592740DC39B120258F5911200F9
:10013000170BEBB408BD7B0080B902004F120025FD
:100140004022758FF9758EF87594F87593A47592A1
:10015000F87591F9120017120025400812003012AC
:10016000001780D902004F7B001200254042120088
:1001700030EB6030758FF8EBB401028027758EB0DC
:10018000EBB40202801E7594F9EBB403028015757E
:1001900093F8EBB40402800C7592F8EBB40502807E
:1001A000037591A41200170BEBB407BD7B0080B957
:1001B00002004F120025404B758F89758E8675940D
:1001C000C77593C77592C07591FF1200171200256D
:1001D0004031758FF8758EB07594F97593F87592F6
:1001E000F87591A41200171200254017758FC67577
:1001F0008E8C7594AB7593B07592F97591A41200BD
:100200001780B002004F7B007C0012002540461290
:100210000030EBB40005758FF88023B40105758EAE
:10022000B0801BB402057594F98013B4030575936F
:10023000F8800BB404057592F880037591A4120040
:1002400017EC70090BEBB405C17C0180BD1BEB7092
:10025000B97C0080B502004F5407048322F8B0F93E
:05026000F8F8A4F8F914
:00000001FF
